:020000040800F2
:1000000088070020890100085F160008AD1300086A
:100010005D1600088F020008C919000800000000E2
:10002000000000000000000000000000631600084F
:100030009102000800000000611600086516000823
:10004000A3010008A3010008A3010008A301000800
:10005000A3010008A3010008A3010008A3010008F0
:10006000A3010008A3010008A3010008A3010008E0
:10007000A3010008A3010008A3010008A3010008D0
:10008000A3010008A3010008A3010008A3010008C0
:10009000A3010008A3010008A3010008A3010008B0
:1000A000A3010008A3010008A3010008A3010008A0
:1000B000C9160008A3010008A3010008A301000855
:1000C000A3010008A3010008A3010008A301000880
:1000D000A3010008BD190008A3010008A30100083E
:1000E000A3010008A3010008A301000800F002F822
:1000F00000F03AF80AA090E8000C82448344AAF188
:100100000107DA4501D100F02FF8AFF2090EBAE885
:100110000F0013F0010F18BFFB1A43F0010318473B
:10012000E420000004210000103A24BF78C878C100
:10013000FAD8520724BF30C830C144BF04680C60ED
:10014000704700000023002400250026103A28BF35
:1001500078C1FBD8520728BF30C148BF0B60704739
:100160001FB51FBD10B510BD00F058F81146FFF7C0
:10017000F7FF01F03BFC00F076F803B4FFF7F2FF65
:1001800003BC00F07DF8000009488047094800479B
:10019000FEE7FEE7FEE7FEE7FEE7FEE7FEE7FEE737
:1001A000FEE7FEE704480549054A064B7047000094
:1001B000C7160008ED00000888010020880700200D
:1001C00088030020880300204FF0000200B513468A
:1001D00094469646203922BFA0E80C50A0E80C5067
:1001E000B1F12001BFF4F7AF090728BFA0E80C5018
:1001F00048BF0CC05DF804EB890028BF40F8042B11
:1002000008BF704748BF20F8022B11F0804F18BF7D
:1002100000F8012B7047704770477047754600F033
:100220002BF8AE4605006946534620F00700854688
:1002300018B020B5FFF7B6FFBDE820404FF000062C
:100240004FF000074FF000084FF0000B21F00701BE
:10025000AC46ACE8C009ACE8C009ACE8C009ACE801
:10026000C0098D46704710B50446AFF300802046A4
:10027000BDE81040FFF781BF00487047240100200F
:1002800001491820ABBEFEE7260002007047FEE7DA
:10029000704772B6FEE710B590F8211000220229CF
:1002A00005D00421816380F82020012010BD016861
:1002B0000B6823F00E030B6001680B6823F0010349
:1002C0000B6090F84030C46B012101FA03F36360C6
:1002D00080F8211080F82020104610BD10B590F84D
:1002E00021100024022903D00421816301243DE070
:1002F00001680A6822F00E020A6001680A6822F0AA
:1003000001020A601A4A0168914201D1012121E0EB
:10031000174A1432914201D110211BE0144A2832AD
:10032000914201D1891515E0114A3C32914201D127
:1003300089140FE00E4A5032914202D14FF48031BD
:1003400008E00B4A6432914202D14FF4801101E07F
:100350004FF08071064A083A5160012180F821105F
:10036000002180F82010416B01B18847204610BD64
:100370000800024070B5044600F010F90546601C04
:1003800002D004480078044400F008F9401BA04261
:10039000FAD370BD140000202DE9F84FDFF8B891B2
:1003A000002409F1040A0AF1040B23460F270BF17C
:1003B000040EC9E00125A5402A40AA427DD1674E1E
:1003C000D1F804C0ACEB0608B44532D014DCBCF163
:1003D000030F3AD009DCBCF1000F2AD0BCF1010FA9
:1003E0001CD0BCF1020F31D11DE0BCF1110F17D0B0
:1003F000BCF1120F2AD119E0B8F5881F19D006DC1C
:10040000B8F5803F15D0B8F5801F1FD111E0B8F5C1
:10041000001F0ED0B8F5041F18D10AE0CB6815E014
:10042000CB681B1D12E0CB6808330FE0CB680C33A0
:100430000CE08B682BB1012B4FF0080303D0456112
:1004400004E0042302E0056100E00023FF2A01D854
:10045000064601E000F104064FEA840501D9A5F142
:100460002005D6F8008007FA05FC28EA0C0803FAF4
:1004700005F548EA0508C6F800804D68ED0062D52C
:10048000374DAE6946F00106AE61AD6924F0030652
:1004900005F001050095334D06EB050CDCF808501E
:1004A000A607360F07FA06F825EA0805DFF8B88030
:1004B000404503D14FF0000817E044E0DFF8AC807E
:1004C000404502D14FF001080FE0DFF8A48040451D
:1004D00002D14FF0020808E0DFF89880404502D1D1
:1004E0004FF0030801E04FF0040808FA06F848EA64
:1004F0000508CCF808804D68D9F80060ED034D463A
:1005000001D5164300E096432E604D68DAF800608E
:10051000AD03554601D5164300E096432E604D6865
:10052000DBF80060ED025D4601D5164300E096431E
:100530002E604D68DEF80060AD02754601D51643A9
:1005400000E096432E60641C0D682A46E5407FF467
:1005500031AFBDE8F88F0000000401400000111029
:10056000001002400000014000080140000C014062
:1005700000100140001401408068084000D00120B4
:100580007047C26821EA02030A4043EA024101615E
:1005900070470AB1016170470904FBE701488068B0
:1005A000704700001400002002488168027811445E
:1005B0008160704714000020074810B5016841F0C1
:1005C00010010160032000F075F80F2000F006F81C
:1005D00000F024F8002010BD0020024070B50D4D41
:1005E00004464FF47A712878B1FBF0F00A490968A3
:1005F000B1FBF0F000F0ECFA48B9102C07D2002261
:100600002146501E00F036F800206C6070BD0120BD
:1006100070BD000014000020200000200C4808B528
:10062000816941F001018161816901F0010100915D
:10063000C16941F08051C161C06900F080500090F3
:100640000448416821F0E06141F00071416008BD5B
:100650000010024000000140002809DB00F01F02EA
:10066000012191404009800000F1E020C0F8001114
:1006700070470000F0B40E4B1B680C46C3F3022316
:10068000C3F10705042D00D90425191D072901D23E
:10069000002300E0DB1E012606FA05F1491E214079
:1006A00099409E40761E16403143F0BC01F08DB952
:1006B0000CED00E0064900F0070208684FF6FF0362
:1006C000184040EA0220034A1043086070470000C7
:1006D0000CED00E00000FA052DE9F0470F4605009B
:1006E00061D0434E306800F00700B84209D230684C
:1006F00020F0070038433060306800F00700B8424F
:1007000051D128683B4C810712D5400703D560685A
:1007100040F4E06060602878000703D5606840F42A
:10072000605060606068A96820F0F0000843606075
:100730002878C00728D06868012810D021680228CE
:1007400010D0890700292EDA616821F003010143E6
:100750006160FFF723FF804641F288390DE0216890
:100760008903EFE78901EDE7FFF718FFA0EB080128
:10077000494502D90320BDE8F0876068696800F048
:100780000C00B0EB810FEFD1306800F00700B842E9
:100790000BD9306820F0070038433060306800F033
:1007A0000700B84201D00120E5E72878400705D5C9
:1007B0006068E96820F4E06008436060287800071A
:1007C00006D56068296920F4605040EAC100606085
:1007D00000F038F86168084AC1F30311515CC84061
:1007E0000649086006480068FFF7F8FE0020C2E7E7
:1007F0000020024000100240EC21000820000020F0
:10080000180000200448054900684968044AC1F3FB
:100810000221515CC84070472000002000100240B7
:10082000FC2100080448054900684968044AC1F3EE
:10083000C221515CC84070472000002000100240D7
:10084000FC21000812A185B00FC98DE80F0014A08B
:10085000144A006804905168134801F00C03042BFB
:1008600010D0082B0ED1C1F38343C9031DF8030038
:100870000AD5516804AAC1F34041515C0A4A504369
:10088000B0FBF1F005B0704708494843FAE70000B3
:1008900002030405060708090A0B0C0D0E0F1010C1
:1008A000010200000010024000127A0000093D0021
:1008B0002DE9F84F040070D02078C04DC00749D012
:1008C0006868C0F38100012807D06868C0F3810020
:1008D000022809D16868C00306D52868800339D585
:1008E00060680028E7D035E06068B0F5803F0BD045
:1008F00010B1B0F5A02F11D0286820F48030286006
:10090000286820F4802002E0286840F480302860C5
:10091000606890B1FFF742FE06460AE0286840F49E
:1009200080202860F0E700BFFFF738FE801B6428B6
:1009300073D828688003F7D50CE0FFF72FFE064632
:1009400005E000BFFFF72AFE801B6428F0D8286866
:100950008003F7D420789A4E80074FF001094FF0BA
:10096000000839D5686810F00C0F07D06868C0F32C
:100970008100022809D16868C00306D4286880076E
:1009800014D52069012808D110E02069B0B1C6F85B
:100990000090FFF703FE074605E00AE1FFF7FEFDC2
:1009A000C01B0228C4D828688007F7D52868616969
:1009B00020F0F80040EAC10028600DE0C6F8008091
:1009C000FFF7ECFD074604E0FFF7E8FDC01B022837
:1009D00023D828688007F7D4207800072CD57948D9
:1009E000A169D9B1C0F80090FFF7D8FD074604E02F
:1009F000FFF7D4FDC01B02280FD8686A8007F7D51F
:100A000071484FF4FA510068B0FBF1F0009000BF5C
:100A10000098411E0091FAD20EE080E0C0F80080FC
:100A2000FFF7BCFD074604E0FFF7B8FDC01B022836
:100A300075D8686A8007F7D42078400760D5E869E0
:100A40000027C00008D4E86940F08050E861E869F8
:100A5000012700F0805000905C480168C90513D45C
:100A60000168834641F480710160FFF797FD82467B
:100A700006E000BFFFF792FDA0EB0A0064284ED805
:100A8000DBF80000C005F5D5E06801280AD008B100
:100A9000052813D0286A20F001002862286A20F077
:100AA000040002E0286A40F001002862E06841F298
:100AB000883B98B1FFF772FD82460BE0286A40F050
:100AC00004002862EEE700BFFFF768FDA0EB0A0113
:100AD00059455AD8286A8007F6D50CE0FFF75EFD25
:100AE000824605E0FFF75AFDA0EB0A0159454CD8B4
:100AF000286A8007F6D41FB1E86920F08050E861C9
:100B0000E06988B36968C1F38101022944D00228F1
:100B1000C6F8608004D0FFF741FD044638E034E0B9
:100B2000FFF73CFD074604E0FFF738FDC01B022835
:100B30002BD828688001F7D4206AB0F5803F05D112
:100B40006868A16820F4003008436860D4E90801AF
:100B50000843696821F4741108436860C6F860901E
:100B6000FFF71CFD044606E025E000BFFFF716FD79
:100B7000001B022809D828688001F7D51BE000BFB8
:100B8000FFF70CFD001B022802D90320BDE8F88FF7
:100B900028688001F4D40EE00128F7D06868226A42
:100BA00000F48031914204D1616A00F470108842EF
:100BB00001D00120EAE70020E8E700000010024031
:100BC00000004242800442422000002000700040A9
:100BD00010B5401EB0F1807F01D3012010BD4FF051
:100BE000E02460610F21601700F0EFFE0020A0619B
:100BF00007202061002010BD7047704770B590F845
:100C00003C20012A26D0012480F83C40022280F8B2
:100C10003D2003685A689D6822F070060A683243D6
:100C20005A600D4B02689A4208D0B2F1804F05D04D
:100C30000A4B9A4202D00A4B9A4204D1496825F0E5
:100C400080031943916080F83D40002180F83C10FA
:100C5000084670BD022070BD002C01400004004019
:100C60000008004010B5040003D094F83D0010B116
:100C700007E0012010BD002084F83C00204600F071
:100C80001FF8022084F83D00211D206800F022FD9D
:100C9000012084F8460084F83E0084F83F0084F880
:100CA000400084F8410084F8420084F8430084F84E
:100CB000440084F8450084F83D00002010BD000089
:100CC00008B50068B0F1804F12D10A48C16941F0FF
:100CD0000101C161C069002200F001000090022101
:100CE0001C20FFF7C7FCBDE808401C20FFF7B4BC80
:100CF00008BD00000010024090F83D10012901D00D
:100D000001207047022180F83D100168CA6842F056
:100D10000102CA6000680B49884208D0B0F1804FD8
:100D200005D00949884202D00849884204D1816827
:100D300001F00701062903D0016841F001010160BB
:100D400000207047002C01400004004000080040D3
:100D500070B5044690F83C00012817D0012584F8AE
:100D60003C50022084F83D002068826822F077021F
:100D700022F47F4282600868502830D00DDC2028A1
:100D80004DD005DC98B310283BD148E0022070BD5F
:100D9000302844D0402834D139E0602828D0702849
:100DA00006D0B0F5805F2CD0B0F5005F29D10AE005
:100DB000CB68D1E90121206800F0C2FC206881687D
:100DC00041F0770109E0CB68D1E90121206800F00A
:100DD000B7FC2068816841F48041816011E0CA68F5
:100DE0004968206800F0BEFC5021206807E016E04A
:100DF000CA684968206800F0C6FC6021206800F0DD
:100E0000A9FC84F83D50002084F83C0070BDCA68FD
:100E10004968206800F0A6FC40212068EFE72268BE
:100E200001461046EBE7704770B50446006801695B
:100E30004FF00005C943890715D4C168C943890724
:100E400011D4E91E016101202077206880698007A4
:100E5000204602D0FFF7E7FF04E000F098F82046B4
:100E600000F096F8257720680169C943490717D42F
:100E7000C168C943490713D46FF00401016102201E
:100E800020772068806910F4407F204602D0FFF769
:100E9000CAFF04E000F07BF8204600F079F82577DF
:100EA00020680169C943090716D4C168C943090705
:100EB00012D46FF008010161042020772068C06916
:100EC0008007204602D0FFF7AEFF04E000F05FF895
:100ED000204600F05DF8257720680169C943C906FE
:100EE00017D4C168C943C90613D46FF0100101615A
:100EF000082020772068C06910F4407F204602D087
:100F0000FFF791FF04E000F042F8204600F040F8BF
:100F1000257720680169C943C90708D1C168C94359
:100F2000C90704D1891E0161204600F033F820680A
:100F30000169C943090609D4C168C943090605D432
:100F40006FF0800101612046FFF756FE20680169BD
:100F5000C943490609D4C168C943490605D46FF09D
:100F600040010161204600F049F820680169C94349
:100F700089060BD4C168C943890607D46FF02001E4
:100F800001612046BDE87040FFF737BE70BD704775
:100F90007047000010B5154900680968884224D1DF
:100FA000134C2078012820D101021248FFF7E9FAFA
:100FB0004FF400511048FFF7E4FAA088401C80B2BB
:100FC000A0806188B0EB410F0FD3A068401CA060E7
:100FD000207D012807D12069401E206103D1002116
:100FE000204600F0D7FD0020A08010BD9800002012
:100FF0007800002000080140001001407047704751
:1010000070470000F8B5026804461068D16853695B
:1010100010F00F0F4FF0000553D003F0010601F45C
:10102000907737435FD0C20705D0CA0503D5226C3D
:1010300042F001022264420705D5DA0703D0226C90
:1010400042F002022264820705D5DA0703D0226C3F
:1010500042F004022264020707D501F02002324365
:1010600003D0226C42F008022264226C002A34D0A1
:10107000800604D5880602D5204600F0B6FB20681D
:101080004069216CC0F38010090700D430B32046BA
:1010900000F093FB2068416949061BD5416921F0A6
:1010A00040014161A06BA8B158494163A06BFFF7B3
:1010B00015F9002811D0A06B416B01B0BDE8F040DC
:1010C000084783060FD58B060DD52046BDE8F840AE
:1010D00000F08BBB2046FFF793FFF8BD2046FFF7DB
:1010E0008FFF2564F8BD266B2023012E52D1C60642
:1010F00050D5CE064ED51068506800905069400615
:101100002AD5A16B086840680004000CEAD0A68DBF
:101110008642E7D9E0858869202818D0D06820F475
:101120008070D0602068416921F001014161206830
:10113000416921F04001416184F83E302563206817
:10114000C16821F01001C160A06BFFF7A4F8A08D69
:10115000E18D401A81B219E0A08DE18D401A81B273
:10116000E08D0028BED00029BCD0D06820F490705B
:10117000D0602068426922F00102426184F83E306A
:1011800025632068C26822F01002C2602046FFF783
:1011900036FFF8BD05062BD50D0629D594F83D0080
:1011A0002128F6D1A068B0F5805F01D12069B0B1E7
:1011B000206A411C2162216800784860E08C401E52
:1011C0000004000CE084E4D12068C16821F08001B3
:1011D000C1602068C16841F04001C160F8BD206A6B
:1011E0000088C0F308005060206A801C2062E5E798
:1011F0004006F3D54806F1D5D168204621F04001DC
:10120000D16084F83D3000F0D0F8F8BDAB1700088D
:1012100070B5040004D094F83D00002510B106E03C
:10122000012070BD84F83C50204600F023F82420B3
:1012300084F83D002068C16821F40051C160204657
:1012400000F02EFB2068016921F4904101612068C3
:10125000416921F02A0141612068C16841F40051CF
:10126000C1602564202084F83D0084F83E00002001
:1012700070BD000030B585B0002400940194029444
:1012800003940068184988422CD11848816941F4B8
:1012900080418161816901F480410491816941F05B
:1012A000040181618069124D00F0040004904FF444
:1012B00000700090022001900320039069462846A8
:1012C000FFF76AF82815CDE900046946284602941C
:1012D000FFF762F8002211462520FFF7CBF9252001
:1012E000FFF7BAF905B030BD0038014000100240E8
:1012F00000080140704700002DE9F843044690F8CB
:101300003D001F4616460D4620284CD1C5B1BEB142
:1013100094F83C00012846D0012084F83C004FF0AE
:101320000008C4F84080212084F83D00FFF736F91A
:10133000A6848146E684A068B0F5805F03D004E00F
:101340000120BDE8F883206928B12E465FF0000532
:1013500084F83C800EE00026FAE78021204600F069
:10136000FBFAA0B9AEB116F8010B21684860E08C19
:10137000401EE084E08C4B464FF0000200970028AE
:10138000EBD14FF04001204600F0E6FA30B10320E7
:10139000D7E735F8020BC0F30800E6E7202084F811
:1013A0003D000020CDE70220CBE77047FEE70000BC
:1013B0002DE9F05F0446DDE91007DDE91665DDE99A
:1013C000149ADDE912C8DDF830E0DDF838B0C4E980
:1013D0000C0CC4E90752C4E90E9610340022A4E8AC
:1013E00080050A98C4F810B044F81C3DC4E9090E01
:1013F0000B9860600D98A0600F98E0605FF00000AF
:1014000001EB800304EB80051544401C9B5CC0B2DB
:1014100085F840300428F3D3521CD2B2042AEDD30D
:10142000208A012281B2206BFFF7B3F8A08A012243
:1014300081B2606BFFF7ADF8208B012281B2A06B07
:10144000FFF7A7F8A08B012281B2E06BBDE8F05F47
:10145000FFF79FB82DE9F0410546002085F85000C0
:101460000646002405EB86070022388A81B2386BD5
:10147000FFF78FF835F8240081B205EB8400006A8D
:10148000FFF77AF880B1388A012281B2386BFFF712
:1014900080F8641CE4B2042CE6D3761CF6B2042E69
:1014A000DFD30020BDE8F0813220FEF763FF05EBBB
:1014B000840700BF35F8240081B2386AFFF75CF872
:1014C0000028F7D0B81990F8400085F85000E9E7F7
:1014D0002DE9F04786B0002434480094019402942A
:1014E0000394816941F010018161816901F010016B
:1014F0000491816941F020018161816901F020013D
:101500000491816941F004018161816901F0040164
:101510000491816941F0080181618069DFF8908060
:1015200000F008004FF40055049000222946404680
:10153000FFF72FF8DFF87C900122F0214846FFF7F3
:1015400028F8DFF874A04FF440470022394650468F
:10155000FFF71FF8002269114846FFF71AF80095B7
:10156000022601250396CDE9015469464046FEF75F
:1015700013FF0F208DE8310069464846FEF70CFF47
:101580004FF4F870CDE90005CDE9024669464846BA
:10159000FEF702FF00970396CDE9015469465046D5
:1015A000FEF7FAFE06B0BDE8F0870000001002402A
:1015B0000010014000080140000C014010B586B049
:1015C00000241748009401940294039404944FF06B
:1015D00080410594016041F26F71C0E901144FF43C
:1015E000E161C0E903148461FFF73CFB08B1FEF739
:1015F00050FE4FF48050009069460948FFF7A8FB61
:1016000008B1FEF746FE049404A905480594FFF7C7
:10161000F5FA002801D0FEF73CFE06B010BD000030
:10162000980000200C4810B50A4901604FF4E131E0
:101630004160002181600C22C160C0E90412816117
:10164000C161FFF7E5FD002803D0BDE81040FEF7BB
:1016500020BE10BD00380140E0000020FEE7FEE79C
:1016600070477047FEF7A0BF30B58FB0282168469D
:10167000FEF7AAFD14210AA8FEF7A6FD0121080421
:10168000CDE900100024029402250491CDE9075011
:101690004FF4E01009906846FFF70AF908B172B6F6
:1016A000FEE70F20CDE90A054FF48060CDE90C403C
:1016B00002210AA80E94FFF70FF8002801D072B695
:1016C000FEE70FB030BD70470148FFF7ADBB00002B
:1016D00098000020F0B50268164B174C174D4FF0DC
:1016E0008047984205D0B84203D0A04201D0A8421A
:1016F00003D122F070064A683243984205D0B842BE
:1017000003D0A04201D0A84203D122F44074CA6899
:1017100022434C6922F08002224302608A68C2623E
:101720000A688262984201D109690163012141611D
:10173000F0BD0000002C0140000400400008004003
:1017400010B5846842EA032224F47F440A4322430A
:10175000826010BD826822F070020A4342F00701E5
:101760008160704710B5036A046A24F001040462C2
:10177000846924F0F00444EA021423F00A020A43C4
:101780008461026210BD10B5036A23F01003036286
:101790008369046A23F4704343EA023224F0A0030D
:1017A00043EA01118261016210BD10B5406A002157
:1017B000C185C184FFF724FC10BD0168CA6822F40A
:1017C0009072CA6001684A6922F001024A61016BA5
:1017D000012904D10168CA6822F01002CA602021E0
:1017E00080F83E1000210163704708B590F83E1064
:1017F000222901D0022008BD82684FF480539A420A
:1018000001D1016921B1816A9A421BD04AB10AE033
:101810000268816A5268C2F308020A80816A891CE0
:1018200008E0026972B10268526802F07F020A7031
:10183000816A491C8162C18D491E0904090CC18558
:1018400003D019E002685268F1E70168CA6822F023
:101850002002CA600168CA6822F48072CA60016806
:101860004A6922F001024A61202180F83E10016B92
:10187000012903D0FFF73EFD002008BD00210163D0
:101880000168CA6822F01002CA6001680A68D206BC
:1018900002D50A6849680091818DFFF7B0FBEBE73C
:1018A00070B5044600680169E26821F440511143B3
:1018B00001612169A0680843616908432168CA6819
:1018C00041F20C639A430243CA6020684169A269ED
:1018D00021F44071114341611E492068884202D1C0
:1018E000FEF7A0FF01E0FEF78DFF00EBC00101EB6A
:1018F0000012606864218000B2FBF0F3B3FBF1F3E7
:101900006FF018067343B2FBF0F5B2FBF0F605EB8F
:101910008305322303EB0515B5FBF1F5B6FBF1F6B4
:1019200005F0F00505EB0615B2FBF0F6B2FBF0F0A2
:10193000B0FBF1F06FF01802504306EB800003EBB0
:101940000010B0FBF1F0216800F00F00284488601F
:1019500070BD0000003801402DE9F041984617465F
:101960000E460446069D1DE0681C1BD02DB1FEF7F7
:1019700015FEA0EB0800A84214D92068C16821F424
:10198000D071C1602068416921F0010141612020CE
:1019900084F83D0084F83E00002084F83C000320D9
:1019A000BDE8F0812068006836EA000004D000201D
:1019B000B842D9D00020F3E70120F9E70148FFF74A
:1019C00021BB0000E0000020FEE70907090E002807
:1019D00004DB00F1E02080F80014704700F00F00F5
:1019E00000F1E02080F8141D704700008EB0FEF773
:1019F000E3FDFFF739FEFFF76BFDFFF713FEFFF77F
:101A0000DDFD354A8020CDE90C204021CDE90A21B9
:101A10002020CDE908201021CDE906210820CDE9BC
:101A2000042004210220CDE90221CDE90020012378
:101A30002A492B48FFF7BCFC2948C8230022012172
:101A4000543000F053F82748FFF756F9234C641E32
:101A50002348FFF7FFFC20700028F9D01F494FF4FE
:101A60007A730122491E2048FFF746FC207841285E
:101A700004D11B480021543000F050F8207842284F
:101A800004D117480121543000F048F82078432849
:101A900004D113480121543000F07CF82078442808
:101AA00004D10F480021543000F074F82078232826
:101AB00007D10B48543081890A3189B2818100F005
:101AC0003BF820783028C3D1054801220521543045
:101AD00000F02EF8BCE700000008014001000020E3
:101AE0002400002098000020E000002010B50170C4
:101AF0004270044643800020A060A080A081206145
:101B00002075E083A0831146204600F007F8217875
:101B10002046BDE8104000F03DB8000041700A4684
:101B20004FF480410148FEF734BD0000000C014035
:101B3000016102757047000010B5044681810846B6
:101B40006188484300F0BAF902460B4600200E496E
:101B500000F05CF800F028F80C4900F01BFA00F0E7
:101B6000DBFAC0F34E00E08308B90120E0830849A6
:101B700080B2C8600846FFF775F8002803D0BDE8BA
:101B80001040FEF786BB10BD00004E403EC3AE388D
:101B90009800002001700A464FF400410148FEF70A
:101BA000F8BC0000000C014021F00042A2F160529C
:101BB000B2F5801F01F0004328BFD2F17F6C0BD932
:101BC0005FEA001C43EAC20242EB507018BF704744
:101BD00028BF20F001007047B2F5801FBCBF184637
:101BE00070474FEA410C1CF5001F02D2084600F076
:101BF000F8BA70B500F079F900000089FFF7F6BF78
:101C00004FF00040A0F58000704700002DE9C04172
:101C100030B4DFF8A0C23CEA111418BF3CEA131438
:101C200000F0EC8081EA03051CEA111444EAD57443
:101C300018BF1CEA131500F0C780A4EB05044FF091
:101C4000004545EAC12145EAC32341EA505143EA30
:101C5000525304F17F74994204F500344FEAC020D6
:101C60004FEAC22208BF904200F09C804FEA136501
:101C70000FF24016765D4FEA134506FB05F7C7F1F4
:101C8000807706FB07F74FEAD737A7FB0368764252
:101C9000C8F58038A7FB06CE38BFA8F1010807FBBE
:101CA00008E64FF0000EA6FB028CE6FB03CEDCF14B
:101CB000000CCEF1004E38BFAEF1010EA6FB0C5861
:101CC0004FF000074FF00005E6FB0E87A1FB08C6AA
:101CD000A0FB07CE16EB0E0645F10005E1FB0765FC
:101CE00015F1E04E7EBFA4F580345FEA46066D41F3
:101CF00016F1800745F100054FEA17274FEA0666FF
:101D000047EA0567A6F1DE46B6F1805F4FEA152582
:101D10001FD9384624F0010C05EBC471BCF1FE6FED
:101D200001EB0C1102D8F0BCBDE8008124425CBF7D
:101D300001F5801E9EEAC47F02D4F0BCBDE800819C
:101D4000244238D4F0BCA1F1C041BDE8004100F00C
:101D50001AB94FEAD22242EA43524FEAD323A7FBF1
:101D600002864FEAD02040EA415007FB03661EEA94
:101D70000E0F4FEAD12105FB026658BFA6EB0056B5
:101D8000B6EB00564FEA520E4EEAC37E18EB0E0E2B
:101D900056EB530EBDD518EB02085E417F1C55F182
:101DA0000005B6E74FF480154FF000074FF000062E
:101DB0004FF00008ADE7F0BC4FF0000001F1C0416A
:101DC00001F00041BDE8008111EA0C1F0CEA131577
:101DD00000D00CE013EA0C1F00F025804FF000004B
:101DE000F0BC81EA030101F00041BDE80081F0BCD4
:101DF000BDE8004181EA030100F0C5B8F0BCBDE8D0
:101E0000004170B500F071F8097EFC3E00F007B8A3
:101E100081EA03014FF0000001F00041704781EAC0
:101E2000030100F0B0B8F0BCBDE800414FF0000085
:101E300021497047FFFDFBF9F7F5F4F2F0EEEDEB09
:101E4000E9E8E6E4E3E1E0DEDDDBDAD8D7D5D4D3B8
:101E5000D1D0CFCDCCCBCAC8C7C6C5C4C2C1C0BF04
:101E6000BEBDBCBBBAB9B8B7B6B5B4B3B2B1B0AF0A
:101E7000AEADACABAAA9A8A8A7A6A5A4A3A3A2A1EE
:101E8000A09F9F9E9D9C9C9B9A99999897979695A9
:101E900095949393929191908F8F8E8E8D8C8C8B45
:101EA0008B8A8989888887878685858484838382CD
:101EB000828181800000FF070000F87F10F000425F
:101EC00048BF4042B0FA80F310FA03F10AD0C3F1E0
:101ED0001D0303F580634FEA415002EB035202EB0E
:101EE000D12170474FF0000070470EF1020E2EF026
:101EF000030E5EF8046B364205D4012A43EB03055A
:101F000015F5001F12D8012841EB010C1CF5001F2C
:101F10000CD80ED14FEAD17C15F5001F0CEB4C0C00
:101F20000CF1020C08BF4CEBD37C04E04FF0080C22
:101F300001E04FEAD37C0CEB4C0526FA05F606F0DF
:101F40000706B6F1040C06D20EEB860CBDE8704015
:101F50004CF0010C6047DFE80CF0090B02024FF077
:101F600000414FF00000A1F5002170BD1946104658
:101F7000012851EB010418BFD4F5001484BF0020E0
:101F800001F0004170BD0808A0F500114FEA3101D1
:101F9000704700004FF47F0C1CEAD0121EBF1CEAF1
:101FA000D11392EA0C0F93EA0C0F00F0858090EAAF
:101FB000010F48BF42F4807240F4000C41F400006D
:101FC0002CF07F4120F07F4000B58142A2EB03025C
:101FD0000FF2081CACEB504EC0F100009EF800E080
:101FE0004FEA4E0E00FB0EFC38BF49004FEA2C1C96
:101FF00002F5FA020CFB0EF34FEACE1E4FEA112C4B
:102000004FEAC1210EEB635E42EB22420EFB0CFC59
:102010004FEA1C5300FB03114FEA112C4FEA013128
:102020000EFB0CFC4FEADC4C00FB0C11C14228BF3C
:1020300009184CEB03335DF804EB10EB410143EB63
:10204000C250B2F57C0F38BF704729D512F0F00F9F
:102050001CBF00F1C04000F0004070470081828347
:102060008485868788898B8C8D8E8F9192939596A7
:1020700097999A9C9D9FA0A2A3A5A7A8AAACAEB031
:10208000B2B3B5B7B9BCBEC0C2C5C7C9CCCED1D436
:10209000D7D9DCDFE2E6E9ECF0F3F7FAFE00000066
:1020A0004FEA400C0CF1807CBCF17E4F28BF70479A
:1020B000B0F1C04000F095B890EA010F0CEAD113DE
:1020C00048BF42F48072624538BF634507D213F4BB
:1020D0007F0F16D080EA010000F00040704710B575
:1020E00000F039F8097EFC3E00F005B880EA0100F6
:1020F00000F00040704780EA010000F0004000F06E
:1021000070B812F47F0F04BF0248704780EA0100E4
:1021100000F067B80000C07FC10DD1F19E0206DB60
:102120004FEA002343F0004323FA02F070470042D5
:1021300007D54FEA4001B1F1FE4F02D24FF0000047
:10214000704710B500F007F84992248000207047CE
:102150006FEA200070470EF1020E2EF0030E5EF8BB
:10216000044B244204D44FEA4102B2F17F4F11D80C
:102170004FEA4003B3F17F4F0CD80ED14FEAD07C29
:10218000B2F17F4F0CEB4C0C0CF1020C08BF4CEB86
:10219000D17C04E04FF0080C01E04FEAD17C0CEB5D
:1021A0004C0324FA03F404F00704B4F1040C06D23F
:1021B0000EEB840CBDE810404CF0010C6047DFE8EA
:1021C0000CF0070802024FF00040A0F5800010BD9F
:1021D0000846420018BFD2F1807288BF00F000406C
:1021E00010BDFF2141EAD050C0057047000000003B
:1021F00000000000010203040607080900000000B7
:102200000102030424220008000000202400000032
:10221000280100084822000824000020640700006C
:102220004401000800313233413435364237383901
:10223000432A302344000000010000001000000089
:08224000000000000024F4007E
:04000005080000ED02
:00000001FF
